{
  "contractName": "Factorial",
  "abi": [
    {
      "constant": true,
      "inputs": [],
      "name": "result",
      "outputs": [
        {
          "internalType": "uint256",
          "name": "",
          "type": "uint256"
        }
      ],
      "payable": false,
      "stateMutability": "view",
      "type": "function"
    },
    {
      "constant": false,
      "inputs": [
        {
          "internalType": "uint256",
          "name": "n",
          "type": "uint256"
        }
      ],
      "name": "calculate",
      "outputs": [
        {
          "internalType": "uint256",
          "name": "",
          "type": "uint256"
        }
      ],
      "payable": false,
      "stateMutability": "nonpayable",
      "type": "function"
    }
  ],
  "bytecode": "0x608060405234801561001057600080fd5b5060ff8061001f6000396000f3fe6080604052348015600f57600080fd5b506004361060325760003560e01c806365372147146037578063b9d92de8146053575b600080fd5b603d6092565b6040518082815260200191505060405180910390f35b607c60048036036020811015606757600080fd5b81019080803590602001909291905050506098565b6040518082815260200191505060405180910390f35b60005481565b60006001821160ad57600160008190555060c0565b60b7600183036098565b82026000819055505b600054905091905056fea265627a7a7231582062015bc7616a84e278ebc207f6e5cb1f722dcff34a546677cc75563514f4247864736f6c63430005100032",
  "source": "pragma solidity >=0.5.0 <0.6.0;\r\n\r\ncontract Factorial {\r\n    uint public result;\r\n    \r\n    function calculate(uint n) public returns (uint) {\r\n        if (n <= 1)\r\n            result = 1;\r\n        else\r\n            result = n * calculate(n - 1);\r\n            \r\n        return result;\r\n    }\r\n}\r\n\r\n",
  "sourcePath": "C:\\git\\RskUtils\\transfers\\contracts\\Factorial.sol",
  "compiler": {
    "name": "solc",
    "version": "0.5.16+commit.9c3226ce.Emscripten.clang"
  },
  "schemaVersion": "3.0.23",
  "updatedAt": "2020-03-24T13:41:23.026Z",
  "devdoc": {
    "methods": {}
  },
  "userdoc": {
    "methods": {}
  }
}