{
  "contractName": "RecursiveParent",
  "abi": [
    {
      "inputs": [],
      "payable": false,
      "stateMutability": "nonpayable",
      "type": "constructor"
    },
    {
      "constant": true,
      "inputs": [],
      "name": "counter",
      "outputs": [
        {
          "internalType": "uint256",
          "name": "",
          "type": "uint256"
        }
      ],
      "payable": false,
      "stateMutability": "view",
      "type": "function"
    },
    {
      "constant": true,
      "inputs": [
        {
          "internalType": "uint256",
          "name": "",
          "type": "uint256"
        }
      ],
      "name": "map",
      "outputs": [
        {
          "internalType": "bool",
          "name": "",
          "type": "bool"
        }
      ],
      "payable": false,
      "stateMutability": "view",
      "type": "function"
    },
    {
      "constant": true,
      "inputs": [],
      "name": "recursive",
      "outputs": [
        {
          "internalType": "contract RecursiveChild",
          "name": "",
          "type": "address"
        }
      ],
      "payable": false,
      "stateMutability": "view",
      "type": "function"
    },
    {
      "constant": false,
      "inputs": [
        {
          "internalType": "uint256",
          "name": "level",
          "type": "uint256"
        }
      ],
      "name": "increment",
      "outputs": [],
      "payable": false,
      "stateMutability": "nonpayable",
      "type": "function"
    }
  ],
  "bytecode": "0x608060405234801561001057600080fd5b503060405161001e906100b6565b808273ffffffffffffffffffffffffffffffffffffffff1673ffffffffffffffffffffffffffffffffffffffff168152602001915050604051809103906000f080158015610070573d6000803e3d6000fd5b50600160006101000a81548173ffffffffffffffffffffffffffffffffffffffff021916908373ffffffffffffffffffffffffffffffffffffffff1602179055506100c3565b6102858061036083390190565b61028e806100d26000396000f3fe608060405234801561001057600080fd5b506004361061004c5760003560e01c806361bc221a146100515780637cf5dab01461006f57806399c93b7b1461009d578063b8dda9c7146100e7575b600080fd5b61005961012d565b6040518082815260200191505060405180910390f35b61009b6004803603602081101561008557600080fd5b8101908080359060200190929190505050610133565b005b6100a5610213565b604051808273ffffffffffffffffffffffffffffffffffffffff1673ffffffffffffffffffffffffffffffffffffffff16815260200191505060405180910390f35b610113600480360360208110156100fd57600080fd5b8101908080359060200190929190505050610239565b604051808215151515815260200191505060405180910390f35b60005481565b600081141561014157610210565b60008081548092919060010191905055506001600260008054815260200190815260200160002060006101000a81548160ff021916908315150217905550600160009054906101000a900473ffffffffffffffffffffffffffffffffffffffff1673ffffffffffffffffffffffffffffffffffffffff16637cf5dab0600183036040518263ffffffff1660e01b815260040180828152602001915050600060405180830381600087803b1580156101f757600080fd5b505af115801561020b573d6000803e3d6000fd5b505050505b50565b600160009054906101000a900473ffffffffffffffffffffffffffffffffffffffff1681565b60026020528060005260406000206000915054906101000a900460ff168156fea265627a7a72315820bef3cf9f8327335b78b179246e5ec1ba1c77856f7d5c12db0981ac8dcfb7f9b464736f6c63430005100032608060405234801561001057600080fd5b506040516102853803806102858339818101604052602081101561003357600080fd5b810190808051906020019092919050505080600160006101000a81548173ffffffffffffffffffffffffffffffffffffffff021916908373ffffffffffffffffffffffffffffffffffffffff160217905550506101f0806100956000396000f3fe608060405234801561001057600080fd5b50600436106100415760003560e01c806361bc221a146100465780637cf5dab01461006457806399c93b7b14610092575b600080fd5b61004e6100dc565b6040518082815260200191505060405180910390f35b6100906004803603602081101561007a57600080fd5b81019080803590602001909291905050506100e2565b005b61009a610195565b604051808273ffffffffffffffffffffffffffffffffffffffff1673ffffffffffffffffffffffffffffffffffffffff16815260200191505060405180910390f35b60005481565b60008114156100f057610192565b6000808154809291906001019190505550600160009054906101000a900473ffffffffffffffffffffffffffffffffffffffff1673ffffffffffffffffffffffffffffffffffffffff16637cf5dab0600183036040518263ffffffff1660e01b815260040180828152602001915050600060405180830381600087803b15801561017957600080fd5b505af115801561018d573d6000803e3d6000fd5b505050505b50565b600160009054906101000a900473ffffffffffffffffffffffffffffffffffffffff168156fea265627a7a72315820cc3deb2011e2eb210f87e3e7dcfbdb4c26fe1d909b562d8c58d8e643ce6e3a5964736f6c63430005100032",
  "source": "pragma solidity >=0.5.0 <0.6.0;\r\n\r\nimport \"./RecursiveInterface.sol\";\r\nimport \"./RecursiveChild.sol\";\r\n\r\ncontract RecursiveParent is RecursiveInterface {\r\n    uint public counter;\r\n    RecursiveChild public recursive;\r\n    mapping(uint => bool) public map;\r\n    \r\n    constructor() public {\r\n        recursive = new RecursiveChild(this);\r\n    }\r\n    \r\n    function increment(uint level) public {\r\n        if (level == 0)\r\n            return;\r\n            \r\n        counter++;\r\n        \r\n        map[counter] = true;\r\n        \r\n        recursive.increment(level - 1);\r\n    }\r\n}\r\n\r\n",
  "sourcePath": "C:\\git\\RskUtils\\transfers\\contracts\\RecursiveParent.sol",
  "compiler": {
    "name": "solc",
    "version": "0.5.16+commit.9c3226ce.Emscripten.clang"
  },
  "schemaVersion": "3.0.23",
  "updatedAt": "2020-09-11T21:10:35.139Z",
  "devdoc": {
    "methods": {}
  },
  "userdoc": {
    "methods": {}
  }
}